{
  "contractName": "Logging",
  "abi": [
    {
      "constant": true,
      "inputs": [],
      "name": "count",
      "outputs": [
        {
          "name": "",
          "type": "uint256"
        }
      ],
      "payable": false,
      "stateMutability": "view",
      "type": "function"
    },
    {
      "constant": false,
      "inputs": [
        {
          "name": "id",
          "type": "string"
        },
        {
          "name": "duration",
          "type": "uint256"
        }
      ],
      "name": "push",
      "outputs": [],
      "payable": false,
      "stateMutability": "nonpayable",
      "type": "function"
    },
    {
      "constant": true,
      "inputs": [
        {
          "name": "id",
          "type": "string"
        }
      ],
      "name": "getDuration",
      "outputs": [
        {
          "name": "",
          "type": "uint256"
        }
      ],
      "payable": false,
      "stateMutability": "view",
      "type": "function"
    }
  ],
  "bytecode": "0x6080604052600060015534801561001557600080fd5b506106b5806100256000396000f300608060405260043610610057576000357c0100000000000000000000000000000000000000000000000000000000900463ffffffff16806306661abd1461005c578063298f5cc114610087578063f806ab5a14610104575b600080fd5b34801561006857600080fd5b50610071610177565b6040518082815260200191505060405180910390f35b34801561009357600080fd5b506100ee600480360381019080803590602001908201803590602001908080601f016020809104026020016040519081016040528093929190818152602001838380828437820191505050505050919291929050505061017d565b6040518082815260200191505060405180910390f35b34801561011057600080fd5b50610175600480360381019080803590602001908201803590602001908080601f016020809104026020016040519081016040528093929190818152602001838380828437820191505050505050919291929080359060200190929190505050610375565b005b60015481565b600080600090505b60015481101561036a57600073__StringUtils___________________________633a96fdd7600080858152602001908152602001600020600001866040518363ffffffff167c01000000000000000000000000000000000000000000000000000000000281526004018080602001806020018381038352858181546001816001161561010002031660029004815260200191508054600181600116156101000203166002900480156102795780601f1061024e57610100808354040283529160200191610279565b820191906000526020600020905b81548152906001019060200180831161025c57829003601f168201915b5050838103825284818151815260200191508051906020019080838360005b838110156102b3578082015181840152602081019050610298565b50505050905090810190601f1680156102e05780820380516001836020036101000a031916815260200191505b5094505050505060206040518083038186803b1580156102ff57600080fd5b505af4158015610313573d6000803e3d6000fd5b505050506040513d602081101561032957600080fd5b8101908080519060200190929190505050141561035d5760008082815260200190815260200160002060010154915061036f565b8080600101915050610185565b600091505b50919050565b60008060009150600090505b60015481101561057557600073__StringUtils___________________________633a96fdd7600080858152602001908152602001600020600001876040518363ffffffff167c01000000000000000000000000000000000000000000000000000000000281526004018080602001806020018381038352858181546001816001161561010002031660029004815260200191508054600181600116156101000203166002900480156104755780601f1061044a57610100808354040283529160200191610475565b820191906000526020600020905b81548152906001019060200180831161045857829003601f168201915b5050838103825284818151815260200191508051906020019080838360005b838110156104af578082015181840152602081019050610494565b50505050905090810190601f1680156104dc5780820380516001836020036101000a031916815260200191505b5094505050505060206040518083038186803b1580156104fb57600080fd5b505af415801561050f573d6000803e3d6000fd5b505050506040513d602081101561052557600080fd5b8101908080519060200190929190505050141561056857826000808381526020019081526020016000206001016000828254019250508190555060019150610575565b8080600101915050610381565b8115156105de576040805190810160405280858152602001848152506000806001600081548092919060010191905055815260200190815260200160002060008201518160000190805190602001906105cf9291906105e4565b50602082015181600101559050505b50505050565b828054600181600116156101000203166002900490600052602060002090601f016020900481019282601f1061062557805160ff1916838001178555610653565b82800160010185558215610653579182015b82811115610652578251825591602001919060010190610637565b5b5090506106609190610664565b5090565b61068691905b8082111561068257600081600090555060010161066a565b5090565b905600a165627a7a72305820ee3097425a951af4cc106eadf8f91c2296133ff2e54761e59bcb1270de0f23cc0029",
  "source": "pragma solidity ^0.4.19;\r\n\r\nimport \"./StringUtils.sol\";\r\n\r\ncontract Logging {\r\n    struct Log {\r\n        string adsId;\r\n        uint duration;\r\n    }\r\n\r\n    mapping(uint => Log) Logs;\r\n    uint public count = 0;\r\n    function push(string id, uint duration) public {\r\n        bool flag = false;\r\n        //find ads with id and plus more duration for it\r\n        for(uint i = 0; i < count; i++){\r\n            if(StringUtils.compare(Logs[i].adsId, id) == 0){\r\n                Logs[i].duration += duration;\r\n                flag = true;\r\n                break;\r\n            }            \r\n        }\r\n        //not found Log that have id, add new\r\n        if(!flag){\r\n            Logs[count++] = Log(id,duration);\r\n        }\r\n    }\r\n\r\n    function getDuration(string id) public view returns (uint){\r\n        for(uint i = 0; i < count; i++){\r\n            if(StringUtils.compare(Logs[i].adsId, id) == 0){\r\n                return Logs[i].duration;\r\n            }\r\n        }\r\n        return 0;\r\n    }\r\n}",
  "sourcePath": "D:\\baitap\\DoAnChuyenNghanh\\recordAdvertisingBlockchain\\contract\\contracts\\Logging.sol",
  "compiler": {
    "name": "solc",
    "version": "0.4.24+commit.e67f0147.Emscripten.clang"
  },
  "schemaVersion": "2.0.0",
  "updatedAt": "2018-06-30T11:24:17.792Z"
}